:100000000C942A000C9447000C946B000C9447004D
:100010000C9447000C9447000C9447000C94470044
:100020000C9447000C9447000C9447000C94470034
:100030000C9447000C9447000C9447000C94470024
:100040000C9447000C9447000C9447000C94470014
:100050000C94470011241FBECFE5D8E0DEBFCDBF12
:1000600010E0A0E6B0E0E6E3F1E002C005900D92FA
:10007000A036B107D9F710E0A0E6B0E001C01D92AC
:10008000A136B107E1F70E9461000C9499000C942D
:10009000000085B7886085BF8BB780688BBF8AB743
:1000A00080688ABF089510BC89E189B98AB18861E6
:1000B0008AB980B5866880BD08958CB95D9BFECFF6
:1000C00008950E9453000E94490081B3806381BB60
:1000D0007894949AFFCF1F920F920FB60F9211242B
:1000E0002F933F934F935F936F937F938F939F9340
:1000F000AF93BF93EF93FF939498959A89B38095AC
:10010000809360000E945D00839BFECF9598949A37
:10011000FF91EF91BF91AF919F918F917F916F91DF
:100120005F914F913F912F910F900FBE0F901F90B5
:060130001895F894FFCFC2
:00000001FF
